{
  "contractName": "SecureDataStorage",
  "abi": [
    {
      "inputs": [],
      "stateMutability": "nonpayable",
      "type": "constructor"
    },
    {
      "anonymous": false,
      "inputs": [
        {
          "indexed": true,
          "internalType": "bytes32",
          "name": "dataHash",
          "type": "bytes32"
        },
        {
          "indexed": false,
          "internalType": "string",
          "name": "ipfsHash",
          "type": "string"
        },
        {
          "indexed": true,
          "internalType": "address",
          "name": "user",
          "type": "address"
        }
      ],
      "name": "DataStored",
      "type": "event"
    },
    {
      "anonymous": false,
      "inputs": [
        {
          "indexed": true,
          "internalType": "address",
          "name": "user",
          "type": "address"
        }
      ],
      "name": "UserAuthorized",
      "type": "event"
    },
    {
      "anonymous": false,
      "inputs": [
        {
          "indexed": true,
          "internalType": "address",
          "name": "user",
          "type": "address"
        }
      ],
      "name": "UserRevoked",
      "type": "event"
    },
    {
      "inputs": [
        {
          "internalType": "address",
          "name": "",
          "type": "address"
        }
      ],
      "name": "authorizedUsers",
      "outputs": [
        {
          "internalType": "bool",
          "name": "",
          "type": "bool"
        }
      ],
      "stateMutability": "view",
      "type": "function",
      "constant": true
    },
    {
      "inputs": [],
      "name": "owner",
      "outputs": [
        {
          "internalType": "address",
          "name": "",
          "type": "address"
        }
      ],
      "stateMutability": "view",
      "type": "function",
      "constant": true
    },
    {
      "inputs": [
        {
          "internalType": "bytes32",
          "name": "",
          "type": "bytes32"
        }
      ],
      "name": "storedData",
      "outputs": [
        {
          "internalType": "string",
          "name": "",
          "type": "string"
        }
      ],
      "stateMutability": "view",
      "type": "function",
      "constant": true
    },
    {
      "inputs": [
        {
          "internalType": "address",
          "name": "user",
          "type": "address"
        }
      ],
      "name": "authorizeUser",
      "outputs": [],
      "stateMutability": "nonpayable",
      "type": "function"
    },
    {
      "inputs": [
        {
          "internalType": "address",
          "name": "user",
          "type": "address"
        }
      ],
      "name": "revokeUser",
      "outputs": [],
      "stateMutability": "nonpayable",
      "type": "function"
    },
    {
      "inputs": [
        {
          "internalType": "bytes32",
          "name": "dataHash",
          "type": "bytes32"
        },
        {
          "internalType": "string",
          "name": "ipfsHash",
          "type": "string"
        }
      ],
      "name": "storeData",
      "outputs": [],
      "stateMutability": "nonpayable",
      "type": "function"
    },
    {
      "inputs": [
        {
          "internalType": "bytes32",
          "name": "dataHash",
          "type": "bytes32"
        }
      ],
      "name": "retrieveData",
      "outputs": [
        {
          "internalType": "string",
          "name": "",
          "type": "string"
        }
      ],
      "stateMutability": "view",
      "type": "function",
      "constant": true
    },
    {
      "inputs": [
        {
          "internalType": "bytes32",
          "name": "dataHash",
          "type": "bytes32"
        }
      ],
      "name": "getStoredDataHash",
      "outputs": [
        {
          "internalType": "string",
          "name": "",
          "type": "string"
        }
      ],
      "stateMutability": "view",
      "type": "function",
      "constant": true
    }
  ],
  "bytecode": "0x608060405234801561001057600080fd5b50336000806101000a81548173ffffffffffffffffffffffffffffffffffffffff021916908373ffffffffffffffffffffffffffffffffffffffff16021790555060018060008060009054906101000a900473ffffffffffffffffffffffffffffffffffffffff1673ffffffffffffffffffffffffffffffffffffffff1673ffffffffffffffffffffffffffffffffffffffff16815260200190815260200160002060006101000a81548160ff02191690831515021790555060008054906101000a900473ffffffffffffffffffffffffffffffffffffffff1673ffffffffffffffffffffffffffffffffffffffff167fb0be505cf6e26533f3066ac7722c3f8a5e8a123f43187c7832d333c49603b14660405160405180910390a2610ced8061013b6000396000f3fe608060405234801561001057600080fd5b50600436106100885760003560e01c806379641c6a1161005b57806379641c6a146101255780638da5cb5b14610155578063c54475fb14610173578063ef097fc4146101a357610088565b80631828983a1461008d57806345e12b5d146100bd57806353794a93146100ed57806367c2a36014610109575b600080fd5b6100a760048036038101906100a29190610880565b6101bf565b6040516100b49190610a64565b60405180910390f35b6100d760048036038101906100d291906108a9565b6101df565b6040516100e49190610a7f565b60405180910390f35b610107600480360381019061010291906108d2565b610284565b005b610123600480360381019061011e9190610880565b61038b565b005b61013f600480360381019061013a91906108a9565b6104b6565b60405161014c9190610a7f565b60405180910390f35b61015d61055b565b60405161016a9190610a49565b60405180910390f35b61018d600480360381019061018891906108a9565b61057f565b60405161019a9190610a7f565b60405180910390f35b6101bd60048036038101906101b89190610880565b61061f565b005b60016020528060005260406000206000915054906101000a900460ff1681565b60606002600083815260200190815260200160002080546101ff90610be8565b80601f016020809104026020016040519081016040528092919081815260200182805461022b90610be8565b80156102785780601f1061024d57610100808354040283529160200191610278565b820191906000526020600020905b81548152906001019060200180831161025b57829003601f168201915b50505050509050919050565b600160003373ffffffffffffffffffffffffffffffffffffffff1673ffffffffffffffffffffffffffffffffffffffff16815260200190815260200160002060009054906101000a900460ff16610310576040517f08c379a000000000000000000000000000000000000000000000000000000000815260040161030790610ac1565b60405180910390fd5b8060026000848152602001908152602001600020908051906020019061033792919061074b565b503373ffffffffffffffffffffffffffffffffffffffff16827fa4394c9be2f08979b0f24a66ee4d389d7bf7c3c215462fc06db9721894fa37bd8360405161037f9190610a7f565b60405180910390a35050565b60008054906101000a900473ffffffffffffffffffffffffffffffffffffffff1673ffffffffffffffffffffffffffffffffffffffff163373ffffffffffffffffffffffffffffffffffffffff1614610419576040517f08c379a000000000000000000000000000000000000000000000000000000000815260040161041090610aa1565b60405180910390fd5b60018060008373ffffffffffffffffffffffffffffffffffffffff1673ffffffffffffffffffffffffffffffffffffffff16815260200190815260200160002060006101000a81548160ff0219169083151502179055508073ffffffffffffffffffffffffffffffffffffffff167fb0be505cf6e26533f3066ac7722c3f8a5e8a123f43187c7832d333c49603b14660405160405180910390a250565b60606002600083815260200190815260200160002080546104d690610be8565b80601f016020809104026020016040519081016040528092919081815260200182805461050290610be8565b801561054f5780601f106105245761010080835404028352916020019161054f565b820191906000526020600020905b81548152906001019060200180831161053257829003601f168201915b50505050509050919050565b60008054906101000a900473ffffffffffffffffffffffffffffffffffffffff1681565b6002602052806000526040600020600091509050805461059e90610be8565b80601f01602080910402602001604051908101604052809291908181526020018280546105ca90610be8565b80156106175780601f106105ec57610100808354040283529160200191610617565b820191906000526020600020905b8154815290600101906020018083116105fa57829003601f168201915b505050505081565b60008054906101000a900473ffffffffffffffffffffffffffffffffffffffff1673ffffffffffffffffffffffffffffffffffffffff163373ffffffffffffffffffffffffffffffffffffffff16146106ad576040517f08c379a00000000000000000000000000000000000000000000000000000000081526004016106a490610aa1565b60405180910390fd5b6000600160008373ffffffffffffffffffffffffffffffffffffffff1673ffffffffffffffffffffffffffffffffffffffff16815260200190815260200160002060006101000a81548160ff0219169083151502179055508073ffffffffffffffffffffffffffffffffffffffff167fb43ac7bf01d16ebcb8c868a4c03fecb1f6984ea4fa1a52c116ef282b8dbb17c560405160405180910390a250565b82805461075790610be8565b90600052602060002090601f01602090048101928261077957600085556107c0565b82601f1061079257805160ff19168380011785556107c0565b828001600101855582156107c0579182015b828111156107bf5782518255916020019190600101906107a4565b5b5090506107cd91906107d1565b5090565b5b808211156107ea5760008160009055506001016107d2565b5090565b60006108016107fc84610b12565b610ae1565b90508281526020810184848401111561081957600080fd5b610824848285610ba6565b509392505050565b60008135905061083b81610c89565b92915050565b60008135905061085081610ca0565b92915050565b600082601f83011261086757600080fd5b81356108778482602086016107ee565b91505092915050565b60006020828403121561089257600080fd5b60006108a08482850161082c565b91505092915050565b6000602082840312156108bb57600080fd5b60006108c984828501610841565b91505092915050565b600080604083850312156108e557600080fd5b60006108f385828601610841565b925050602083013567ffffffffffffffff81111561091057600080fd5b61091c85828601610856565b9150509250929050565b61092f81610b5e565b82525050565b61093e81610b70565b82525050565b600061094f82610b42565b6109598185610b4d565b9350610969818560208601610bb5565b61097281610c78565b840191505092915050565b600061098a603083610b4d565b91507f4f6e6c792074686520636f6e7472616374206f776e65722063616e207065726660008301527f6f726d207468697320616374696f6e2e000000000000000000000000000000006020830152604082019050919050565b60006109f0602e83610b4d565b91507f596f7520617265206e6f7420617574686f72697a656420746f20706572666f7260008301527f6d207468697320616374696f6e2e0000000000000000000000000000000000006020830152604082019050919050565b6000602082019050610a5e6000830184610926565b92915050565b6000602082019050610a796000830184610935565b92915050565b60006020820190508181036000830152610a998184610944565b905092915050565b60006020820190508181036000830152610aba8161097d565b9050919050565b60006020820190508181036000830152610ada816109e3565b9050919050565b6000604051905081810181811067ffffffffffffffff82111715610b0857610b07610c49565b5b8060405250919050565b600067ffffffffffffffff821115610b2d57610b2c610c49565b5b601f19601f8301169050602081019050919050565b600081519050919050565b600082825260208201905092915050565b6000610b6982610b86565b9050919050565b60008115159050919050565b6000819050919050565b600073ffffffffffffffffffffffffffffffffffffffff82169050919050565b82818337600083830152505050565b60005b83811015610bd3578082015181840152602081019050610bb8565b83811115610be2576000848401525b50505050565b60006002820490506001821680610c0057607f821691505b60208210811415610c1457610c13610c1a565b5b50919050565b7f4e487b7100000000000000000000000000000000000000000000000000000000600052602260045260246000fd5b7f4e487b7100000000000000000000000000000000000000000000000000000000600052604160045260246000fd5b6000601f19601f8301169050919050565b610c9281610b5e565b8114610c9d57600080fd5b50565b610ca981610b7c565b8114610cb457600080fd5b5056fea26469706673582212209bd2f0cd4e7f003decf4eb14df2b136a314bd023bad7638b5b8f3c005efbd31a64736f6c63430008000033",
  "immutableReferences": {},
  "source": "// SPDX-License-Identifier: MIT\r\npragma solidity ^0.8.0;\r\n\r\ncontract SecureDataStorage {\r\n    address public owner;\r\n\r\n    // \r\n    mapping(address => bool) public authorizedUsers;\r\n\r\n    //  ( -> IPFS CID)\r\n    mapping(bytes32 => string) public storedData;\r\n\r\n    // \r\n    event DataStored(bytes32 indexed dataHash, string ipfsHash, address indexed user);\r\n    event UserAuthorized(address indexed user);\r\n    event UserRevoked(address indexed user);\r\n\r\n    // \r\n    constructor() {\r\n        owner = msg.sender; // \r\n\tauthorizedUsers[owner] = true; // \r\n        emit UserAuthorized(owner);\r\n\r\n    }\r\n\r\n    // \r\n    modifier onlyOwner() {\r\n        require(msg.sender == owner, \"Only the contract owner can perform this action.\");\r\n        _;\r\n    }\r\n\r\n    // \r\n    modifier onlyAuthorized() {\r\n        require(authorizedUsers[msg.sender], \"You are not authorized to perform this action.\");\r\n        _;\r\n    }\r\n\r\n    // \r\n    function authorizeUser(address user) public onlyOwner {\r\n        authorizedUsers[user] = true;\r\n        emit UserAuthorized(user); // \r\n    }\r\n\r\n    // \r\n    function revokeUser(address user) public onlyOwner {\r\n        authorizedUsers[user] = false;\r\n        emit UserRevoked(user); // \r\n    }\r\n\r\n    //  ()\r\n    function storeData(bytes32 dataHash, string memory ipfsHash) public onlyAuthorized {\r\n        storedData[dataHash] = ipfsHash;\r\n        emit DataStored(dataHash, ipfsHash, msg.sender); // \r\n    }\r\n\r\n    // IPFS\r\n    function retrieveData(bytes32 dataHash) public view returns (string memory) {\r\n        return storedData[dataHash];\r\n    }\r\n\r\n    function getStoredDataHash(bytes32 dataHash) public view returns (string memory) {\r\n    return storedData[dataHash];\r\n    }\r\n\r\n}\r\n",
  "sourcePath": "E:\\\\CODE\\MyBlockchainProject\\contracts\\SecureDataStorage.sol",
  "compiler": {
    "name": "solc",
    "version": "0.8.0+commit.c7dfd78e.Emscripten.clang"
  },
  "schemaVersion": "3.4.16",
  "updatedAt": "2025-02-10T03:30:34.856Z",
  "networkType": "ethereum",
  "devdoc": {
    "kind": "dev",
    "methods": {},
    "version": 1
  },
  "userdoc": {
    "kind": "user",
    "methods": {},
    "version": 1
  }
}